S00F00004C4946495F54582E73726563E6
S11300000C942A000C943F000C943F000C943F0085
S11300100C943F000C943F000C943F000C943F0060
S11300200C943F000C943F000C943F000C943F0050
S11300300C943F000C943F000C943F000C943F0040
S11300400C943F000C943F000C943F000C943F0030
S11300500C943F0011241FBECFE5D8E0DEBFCDBF16
S113006010E0A0E6B0E0ECE0F1E002C005900D92F3
S1130070AC36B107D9F70E9473000C9484000C9439
S1130080000092B39F7B92BBEFE0F7E23197F1F768
S113009000C0000020E030E019C0482F50E0022EDC
S11300A002C0559547950A94E2F740FF04C092B305
S11300B0906492BB03C092B39F7B92BBEFE0F7E2E4
S11300C03197F1F700C000002F5F3F4F2830310512
S11300D024F382B3806482BB8FE097E20197F1F747
S11300E000C00000089581B3806481BBC0E0D0E00B
S11300F007C0FE01E05AFF4F80810E944100219613
S10F0100CA30D105B4F3F2CFF894FFCF5D
S10F010C44454152204D414D410A000081
S9030000FC
